{
  "contractName": "TradingFloor",
  "abi": [
    {
      "inputs": [
        {
          "internalType": "string",
          "name": "_name",
          "type": "string"
        },
        {
          "internalType": "string",
          "name": "_symbol",
          "type": "string"
        },
        {
          "internalType": "address",
          "name": "_nft",
          "type": "address"
        }
      ],
      "stateMutability": "nonpayable",
      "type": "constructor"
    },
    {
      "anonymous": false,
      "inputs": [
        {
          "indexed": true,
          "internalType": "address",
          "name": "owner",
          "type": "address"
        },
        {
          "indexed": true,
          "internalType": "address",
          "name": "spender",
          "type": "address"
        },
        {
          "indexed": false,
          "internalType": "uint256",
          "name": "value",
          "type": "uint256"
        }
      ],
      "name": "Approval",
      "type": "event"
    },
    {
      "anonymous": false,
      "inputs": [
        {
          "indexed": true,
          "internalType": "address",
          "name": "from",
          "type": "address"
        },
        {
          "indexed": true,
          "internalType": "address",
          "name": "to",
          "type": "address"
        },
        {
          "indexed": false,
          "internalType": "uint256",
          "name": "value",
          "type": "uint256"
        }
      ],
      "name": "Transfer",
      "type": "event"
    },
    {
      "inputs": [],
      "name": "NFT",
      "outputs": [
        {
          "internalType": "contract IERC721",
          "name": "",
          "type": "address"
        }
      ],
      "stateMutability": "view",
      "type": "function"
    },
    {
      "inputs": [
        {
          "internalType": "uint256",
          "name": "",
          "type": "uint256"
        }
      ],
      "name": "NFTs",
      "outputs": [
        {
          "internalType": "uint256",
          "name": "",
          "type": "uint256"
        }
      ],
      "stateMutability": "view",
      "type": "function"
    },
    {
      "inputs": [
        {
          "internalType": "address",
          "name": "owner",
          "type": "address"
        },
        {
          "internalType": "address",
          "name": "spender",
          "type": "address"
        }
      ],
      "name": "allowance",
      "outputs": [
        {
          "internalType": "uint256",
          "name": "",
          "type": "uint256"
        }
      ],
      "stateMutability": "view",
      "type": "function"
    },
    {
      "inputs": [
        {
          "internalType": "address",
          "name": "spender",
          "type": "address"
        },
        {
          "internalType": "uint256",
          "name": "amount",
          "type": "uint256"
        }
      ],
      "name": "approve",
      "outputs": [
        {
          "internalType": "bool",
          "name": "",
          "type": "bool"
        }
      ],
      "stateMutability": "nonpayable",
      "type": "function"
    },
    {
      "inputs": [
        {
          "internalType": "address",
          "name": "account",
          "type": "address"
        }
      ],
      "name": "balanceOf",
      "outputs": [
        {
          "internalType": "uint256",
          "name": "",
          "type": "uint256"
        }
      ],
      "stateMutability": "view",
      "type": "function"
    },
    {
      "inputs": [],
      "name": "decimals",
      "outputs": [
        {
          "internalType": "uint8",
          "name": "",
          "type": "uint8"
        }
      ],
      "stateMutability": "view",
      "type": "function"
    },
    {
      "inputs": [
        {
          "internalType": "address",
          "name": "spender",
          "type": "address"
        },
        {
          "internalType": "uint256",
          "name": "subtractedValue",
          "type": "uint256"
        }
      ],
      "name": "decreaseAllowance",
      "outputs": [
        {
          "internalType": "bool",
          "name": "",
          "type": "bool"
        }
      ],
      "stateMutability": "nonpayable",
      "type": "function"
    },
    {
      "inputs": [
        {
          "internalType": "address",
          "name": "spender",
          "type": "address"
        },
        {
          "internalType": "uint256",
          "name": "addedValue",
          "type": "uint256"
        }
      ],
      "name": "increaseAllowance",
      "outputs": [
        {
          "internalType": "bool",
          "name": "",
          "type": "bool"
        }
      ],
      "stateMutability": "nonpayable",
      "type": "function"
    },
    {
      "inputs": [],
      "name": "name",
      "outputs": [
        {
          "internalType": "string",
          "name": "",
          "type": "string"
        }
      ],
      "stateMutability": "view",
      "type": "function"
    },
    {
      "inputs": [],
      "name": "symbol",
      "outputs": [
        {
          "internalType": "string",
          "name": "",
          "type": "string"
        }
      ],
      "stateMutability": "view",
      "type": "function"
    },
    {
      "inputs": [],
      "name": "totalSupply",
      "outputs": [
        {
          "internalType": "uint256",
          "name": "",
          "type": "uint256"
        }
      ],
      "stateMutability": "view",
      "type": "function"
    },
    {
      "inputs": [
        {
          "internalType": "address",
          "name": "to",
          "type": "address"
        },
        {
          "internalType": "uint256",
          "name": "amount",
          "type": "uint256"
        }
      ],
      "name": "transfer",
      "outputs": [
        {
          "internalType": "bool",
          "name": "",
          "type": "bool"
        }
      ],
      "stateMutability": "nonpayable",
      "type": "function"
    },
    {
      "inputs": [
        {
          "internalType": "address",
          "name": "from",
          "type": "address"
        },
        {
          "internalType": "address",
          "name": "to",
          "type": "address"
        },
        {
          "internalType": "uint256",
          "name": "amount",
          "type": "uint256"
        }
      ],
      "name": "transferFrom",
      "outputs": [
        {
          "internalType": "bool",
          "name": "",
          "type": "bool"
        }
      ],
      "stateMutability": "nonpayable",
      "type": "function"
    },
    {
      "inputs": [
        {
          "internalType": "uint256",
          "name": "_tokenId",
          "type": "uint256"
        }
      ],
      "name": "deposit",
      "outputs": [],
      "stateMutability": "nonpayable",
      "type": "function"
    },
    {
      "inputs": [],
      "name": "withdraw",
      "outputs": [],
      "stateMutability": "nonpayable",
      "type": "function"
    }
  ],
  "bytecode": "0x60806040523480156200001157600080fd5b50604051620021cc380380620021cc833981810160405281019062000037919062000369565b8282816003908051906020019062000051929190620000b7565b5080600490805190602001906200006a929190620000b7565b50505080600560006101000a81548173ffffffffffffffffffffffffffffffffffffffff021916908373ffffffffffffffffffffffffffffffffffffffff16021790555050505062000468565b828054620000c59062000432565b90600052602060002090601f016020900481019282620000e9576000855562000135565b82601f106200010457805160ff191683800117855562000135565b8280016001018555821562000135579182015b828111156200013457825182559160200191906001019062000117565b5b50905062000144919062000148565b5090565b5b808211156200016357600081600090555060010162000149565b5090565b6000604051905090565b600080fd5b600080fd5b600080fd5b600080fd5b6000601f19601f8301169050919050565b7f4e487b7100000000000000000000000000000000000000000000000000000000600052604160045260246000fd5b620001d08262000185565b810181811067ffffffffffffffff82111715620001f257620001f162000196565b5b80604052505050565b60006200020762000167565b9050620002158282620001c5565b919050565b600067ffffffffffffffff82111562000238576200023762000196565b5b620002438262000185565b9050602081019050919050565b60005b838110156200027057808201518184015260208101905062000253565b8381111562000280576000848401525b50505050565b60006200029d62000297846200021a565b620001fb565b905082815260208101848484011115620002bc57620002bb62000180565b5b620002c984828562000250565b509392505050565b600082601f830112620002e957620002e86200017b565b5b8151620002fb84826020860162000286565b91505092915050565b600073ffffffffffffffffffffffffffffffffffffffff82169050919050565b6000620003318262000304565b9050919050565b620003438162000324565b81146200034f57600080fd5b50565b600081519050620003638162000338565b92915050565b60008060006060848603121562000385576200038462000171565b5b600084015167ffffffffffffffff811115620003a657620003a562000176565b5b620003b486828701620002d1565b935050602084015167ffffffffffffffff811115620003d857620003d762000176565b5b620003e686828701620002d1565b9250506040620003f98682870162000352565b9150509250925092565b7f4e487b7100000000000000000000000000000000000000000000000000000000600052602260045260246000fd5b600060028204905060018216806200044b57607f821691505b6020821081141562000462576200046162000403565b5b50919050565b611d5480620004786000396000f3fe608060405234801561001057600080fd5b50600436106100f55760003560e01c806370a0823111610097578063a457c2d711610066578063a457c2d71461028a578063a9059cbb146102ba578063b6b55f25146102ea578063dd62ed3e14610306576100f5565b806370a08231146101ee5780637c0b8de21461021e57806395d89b411461023c578063a3c0b95b1461025a576100f5565b806323b872dd116100d357806323b872dd14610166578063313ce5671461019657806339509351146101b45780633ccfd60b146101e4576100f5565b806306fdde03146100fa578063095ea7b31461011857806318160ddd14610148575b600080fd5b610102610336565b60405161010f919061129f565b60405180910390f35b610132600480360381019061012d919061135a565b6103c8565b60405161013f91906113b5565b60405180910390f35b6101506103eb565b60405161015d91906113df565b60405180910390f35b610180600480360381019061017b91906113fa565b6103f5565b60405161018d91906113b5565b60405180910390f35b61019e610424565b6040516101ab9190611469565b60405180910390f35b6101ce60048036038101906101c9919061135a565b61042d565b6040516101db91906113b5565b60405180910390f35b6101ec6104d7565b005b61020860048036038101906102039190611484565b610596565b60405161021591906113df565b60405180910390f35b6102266105de565b6040516102339190611510565b60405180910390f35b610244610604565b604051610251919061129f565b60405180910390f35b610274600480360381019061026f919061152b565b610696565b60405161028191906113df565b60405180910390f35b6102a4600480360381019061029f919061135a565b6106ba565b6040516102b191906113b5565b60405180910390f35b6102d460048036038101906102cf919061135a565b6107a4565b6040516102e191906113b5565b60405180910390f35b61030460048036038101906102ff919061152b565b6107c7565b005b610320600480360381019061031b9190611558565b6108a3565b60405161032d91906113df565b60405180910390f35b606060038054610345906115c7565b80601f0160208091040260200160405190810160405280929190818152602001828054610371906115c7565b80156103be5780601f10610393576101008083540402835291602001916103be565b820191906000526020600020905b8154815290600101906020018083116103a157829003601f168201915b5050505050905090565b6000806103d361092a565b90506103e0818585610932565b600191505092915050565b6000600254905090565b60008061040061092a565b905061040d858285610afd565b610418858585610b89565b60019150509392505050565b60006012905090565b60008061043861092a565b90506104cc818585600160008673ffffffffffffffffffffffffffffffffffffffff1673ffffffffffffffffffffffffffffffffffffffff16815260200190815260200160002060008973ffffffffffffffffffffffffffffffffffffffff1673ffffffffffffffffffffffffffffffffffffffff168152602001908152602001600020546104c79190611628565b610932565b600191505092915050565b60006104e1610e0a565b905060006104ed61092a565b9050600560009054906101000a900473ffffffffffffffffffffffffffffffffffffffff1673ffffffffffffffffffffffffffffffffffffffff166342842e0e3083856040518463ffffffff1660e01b815260040161054e9392919061168d565b600060405180830381600087803b15801561056857600080fd5b505af115801561057c573d6000803e3d6000fd5b5050505061059281670de0b6b3a7640000610ec5565b5050565b60008060008373ffffffffffffffffffffffffffffffffffffffff1673ffffffffffffffffffffffffffffffffffffffff168152602001908152602001600020549050919050565b600560009054906101000a900473ffffffffffffffffffffffffffffffffffffffff1681565b606060048054610613906115c7565b80601f016020809104026020016040519081016040528092919081815260200182805461063f906115c7565b801561068c5780601f106106615761010080835404028352916020019161068c565b820191906000526020600020905b81548152906001019060200180831161066f57829003601f168201915b5050505050905090565b600681815481106106a657600080fd5b906000526020600020016000915090505481565b6000806106c561092a565b90506000600160008373ffffffffffffffffffffffffffffffffffffffff1673ffffffffffffffffffffffffffffffffffffffff16815260200190815260200160002060008673ffffffffffffffffffffffffffffffffffffffff1673ffffffffffffffffffffffffffffffffffffffff1681526020019081526020016000205490508381101561078b576040517f08c379a000000000000000000000000000000000000000000000000000000000815260040161078290611736565b60405180910390fd5b6107988286868403610932565b60019250505092915050565b6000806107af61092a565b90506107bc818585610b89565b600191505092915050565b600681908060018154018082558091505060019003906000526020600020016000909190919091505560006107fa61092a565b9050600560009054906101000a900473ffffffffffffffffffffffffffffffffffffffff1673ffffffffffffffffffffffffffffffffffffffff166342842e0e8230856040518463ffffffff1660e01b815260040161085b9392919061168d565b600060405180830381600087803b15801561087557600080fd5b505af1158015610889573d6000803e3d6000fd5b5050505061089f81670de0b6b3a764000061109c565b5050565b6000600160008473ffffffffffffffffffffffffffffffffffffffff1673ffffffffffffffffffffffffffffffffffffffff16815260200190815260200160002060008373ffffffffffffffffffffffffffffffffffffffff1673ffffffffffffffffffffffffffffffffffffffff16815260200190815260200160002054905092915050565b600033905090565b600073ffffffffffffffffffffffffffffffffffffffff168373ffffffffffffffffffffffffffffffffffffffff1614156109a2576040517f08c379a0000000000000000000000000000000000000000000000000000000008152600401610999906117c8565b60405180910390fd5b600073ffffffffffffffffffffffffffffffffffffffff168273ffffffffffffffffffffffffffffffffffffffff161415610a12576040517f08c379a0000000000000000000000000000000000000000000000000000000008152600401610a099061185a565b60405180910390fd5b80600160008573ffffffffffffffffffffffffffffffffffffffff1673ffffffffffffffffffffffffffffffffffffffff16815260200190815260200160002060008473ffffffffffffffffffffffffffffffffffffffff1673ffffffffffffffffffffffffffffffffffffffff168152602001908152602001600020819055508173ffffffffffffffffffffffffffffffffffffffff168373ffffffffffffffffffffffffffffffffffffffff167f8c5be1e5ebec7d5bd14f71427d1e84f3dd0314c0f7b2291e5b200ac8c7c3b92583604051610af091906113df565b60405180910390a3505050565b6000610b0984846108a3565b90507fffffffffffffffffffffffffffffffffffffffffffffffffffffffffffffffff8114610b835781811015610b75576040517f08c379a0000000000000000000000000000000000000000000000000000000008152600401610b6c906118c6565b60405180910390fd5b610b828484848403610932565b5b50505050565b600073ffffffffffffffffffffffffffffffffffffffff168373ffffffffffffffffffffffffffffffffffffffff161415610bf9576040517f08c379a0000000000000000000000000000000000000000000000000000000008152600401610bf090611958565b60405180910390fd5b600073ffffffffffffffffffffffffffffffffffffffff168273ffffffffffffffffffffffffffffffffffffffff161415610c69576040517f08c379a0000000000000000000000000000000000000000000000000000000008152600401610c60906119ea565b60405180910390fd5b610c748383836111fc565b60008060008573ffffffffffffffffffffffffffffffffffffffff1673ffffffffffffffffffffffffffffffffffffffff16815260200190815260200160002054905081811015610cfa576040517f08c379a0000000000000000000000000000000000000000000000000000000008152600401610cf190611a7c565b60405180910390fd5b8181036000808673ffffffffffffffffffffffffffffffffffffffff1673ffffffffffffffffffffffffffffffffffffffff16815260200190815260200160002081905550816000808573ffffffffffffffffffffffffffffffffffffffff1673ffffffffffffffffffffffffffffffffffffffff1681526020019081526020016000206000828254610d8d9190611628565b925050819055508273ffffffffffffffffffffffffffffffffffffffff168473ffffffffffffffffffffffffffffffffffffffff167fddf252ad1be2c89b69c2b068fc378daa952ba7f163c4a11628f55a4df523b3ef84604051610df191906113df565b60405180910390a3610e04848484611201565b50505050565b60008060068054905042610e1e9190611acb565b9050600060068281548110610e3657610e35611afc565b5b9060005260206000200154905060066001600680549050610e579190611b2b565b81548110610e6857610e67611afc565b5b906000526020600020015460068381548110610e8757610e86611afc565b5b90600052602060002001819055506006805480610ea757610ea6611b5f565b5b60019003818190600052602060002001600090559055809250505090565b600073ffffffffffffffffffffffffffffffffffffffff168273ffffffffffffffffffffffffffffffffffffffff161415610f35576040517f08c379a0000000000000000000000000000000000000000000000000000000008152600401610f2c90611c00565b60405180910390fd5b610f41826000836111fc565b60008060008473ffffffffffffffffffffffffffffffffffffffff1673ffffffffffffffffffffffffffffffffffffffff16815260200190815260200160002054905081811015610fc7576040517f08c379a0000000000000000000000000000000000000000000000000000000008152600401610fbe90611c92565b60405180910390fd5b8181036000808573ffffffffffffffffffffffffffffffffffffffff1673ffffffffffffffffffffffffffffffffffffffff16815260200190815260200160002081905550816002600082825461101e9190611b2b565b92505081905550600073ffffffffffffffffffffffffffffffffffffffff168373ffffffffffffffffffffffffffffffffffffffff167fddf252ad1be2c89b69c2b068fc378daa952ba7f163c4a11628f55a4df523b3ef8460405161108391906113df565b60405180910390a361109783600084611201565b505050565b600073ffffffffffffffffffffffffffffffffffffffff168273ffffffffffffffffffffffffffffffffffffffff16141561110c576040517f08c379a000000000000000000000000000000000000000000000000000000000815260040161110390611cfe565b60405180910390fd5b611118600083836111fc565b806002600082825461112a9190611628565b92505081905550806000808473ffffffffffffffffffffffffffffffffffffffff1673ffffffffffffffffffffffffffffffffffffffff168152602001908152602001600020600082825461117f9190611628565b925050819055508173ffffffffffffffffffffffffffffffffffffffff16600073ffffffffffffffffffffffffffffffffffffffff167fddf252ad1be2c89b69c2b068fc378daa952ba7f163c4a11628f55a4df523b3ef836040516111e491906113df565b60405180910390a36111f860008383611201565b5050565b505050565b505050565b600081519050919050565b600082825260208201905092915050565b60005b83811015611240578082015181840152602081019050611225565b8381111561124f576000848401525b50505050565b6000601f19601f8301169050919050565b600061127182611206565b61127b8185611211565b935061128b818560208601611222565b61129481611255565b840191505092915050565b600060208201905081810360008301526112b98184611266565b905092915050565b600080fd5b600073ffffffffffffffffffffffffffffffffffffffff82169050919050565b60006112f1826112c6565b9050919050565b611301816112e6565b811461130c57600080fd5b50565b60008135905061131e816112f8565b92915050565b6000819050919050565b61133781611324565b811461134257600080fd5b50565b6000813590506113548161132e565b92915050565b60008060408385031215611371576113706112c1565b5b600061137f8582860161130f565b925050602061139085828601611345565b9150509250929050565b60008115159050919050565b6113af8161139a565b82525050565b60006020820190506113ca60008301846113a6565b92915050565b6113d981611324565b82525050565b60006020820190506113f460008301846113d0565b92915050565b600080600060608486031215611413576114126112c1565b5b60006114218682870161130f565b93505060206114328682870161130f565b925050604061144386828701611345565b9150509250925092565b600060ff82169050919050565b6114638161144d565b82525050565b600060208201905061147e600083018461145a565b92915050565b60006020828403121561149a576114996112c1565b5b60006114a88482850161130f565b91505092915050565b6000819050919050565b60006114d66114d16114cc846112c6565b6114b1565b6112c6565b9050919050565b60006114e8826114bb565b9050919050565b60006114fa826114dd565b9050919050565b61150a816114ef565b82525050565b60006020820190506115256000830184611501565b92915050565b600060208284031215611541576115406112c1565b5b600061154f84828501611345565b91505092915050565b6000806040838503121561156f5761156e6112c1565b5b600061157d8582860161130f565b925050602061158e8582860161130f565b9150509250929050565b7f4e487b7100000000000000000000000000000000000000000000000000000000600052602260045260246000fd5b600060028204905060018216806115df57607f821691505b602082108114156115f3576115f2611598565b5b50919050565b7f4e487b7100000000000000000000000000000000000000000000000000000000600052601160045260246000fd5b600061163382611324565b915061163e83611324565b9250827fffffffffffffffffffffffffffffffffffffffffffffffffffffffffffffffff03821115611673576116726115f9565b5b828201905092915050565b611687816112e6565b82525050565b60006060820190506116a2600083018661167e565b6116af602083018561167e565b6116bc60408301846113d0565b949350505050565b7f45524332303a2064656372656173656420616c6c6f77616e63652062656c6f7760008201527f207a65726f000000000000000000000000000000000000000000000000000000602082015250565b6000611720602583611211565b915061172b826116c4565b604082019050919050565b6000602082019050818103600083015261174f81611713565b9050919050565b7f45524332303a20617070726f76652066726f6d20746865207a65726f2061646460008201527f7265737300000000000000000000000000000000000000000000000000000000602082015250565b60006117b2602483611211565b91506117bd82611756565b604082019050919050565b600060208201905081810360008301526117e1816117a5565b9050919050565b7f45524332303a20617070726f766520746f20746865207a65726f20616464726560008201527f7373000000000000000000000000000000000000000000000000000000000000602082015250565b6000611844602283611211565b915061184f826117e8565b604082019050919050565b6000602082019050818103600083015261187381611837565b9050919050565b7f45524332303a20696e73756666696369656e7420616c6c6f77616e6365000000600082015250565b60006118b0601d83611211565b91506118bb8261187a565b602082019050919050565b600060208201905081810360008301526118df816118a3565b9050919050565b7f45524332303a207472616e736665722066726f6d20746865207a65726f20616460008201527f6472657373000000000000000000000000000000000000000000000000000000602082015250565b6000611942602583611211565b915061194d826118e6565b604082019050919050565b6000602082019050818103600083015261197181611935565b9050919050565b7f45524332303a207472616e7366657220746f20746865207a65726f206164647260008201527f6573730000000000000000000000000000000000000000000000000000000000602082015250565b60006119d4602383611211565b91506119df82611978565b604082019050919050565b60006020820190508181036000830152611a03816119c7565b9050919050565b7f45524332303a207472616e7366657220616d6f756e742065786365656473206260008201527f616c616e63650000000000000000000000000000000000000000000000000000602082015250565b6000611a66602683611211565b9150611a7182611a0a565b604082019050919050565b60006020820190508181036000830152611a9581611a59565b9050919050565b7f4e487b7100000000000000000000000000000000000000000000000000000000600052601260045260246000fd5b6000611ad682611324565b9150611ae183611324565b925082611af157611af0611a9c565b5b828206905092915050565b7f4e487b7100000000000000000000000000000000000000000000000000000000600052603260045260246000fd5b6000611b3682611324565b9150611b4183611324565b925082821015611b5457611b536115f9565b5b828203905092915050565b7f4e487b7100000000000000000000000000000000000000000000000000000000600052603160045260246000fd5b7f45524332303a206275726e2066726f6d20746865207a65726f2061646472657360008201527f7300000000000000000000000000000000000000000000000000000000000000602082015250565b6000611bea602183611211565b9150611bf582611b8e565b604082019050919050565b60006020820190508181036000830152611c1981611bdd565b9050919050565b7f45524332303a206275726e20616d6f756e7420657863656564732062616c616e60008201527f6365000000000000000000000000000000000000000000000000000000000000602082015250565b6000611c7c602283611211565b9150611c8782611c20565b604082019050919050565b60006020820190508181036000830152611cab81611c6f565b9050919050565b7f45524332303a206d696e7420746f20746865207a65726f206164647265737300600082015250565b6000611ce8601f83611211565b9150611cf382611cb2565b602082019050919050565b60006020820190508181036000830152611d1781611cdb565b905091905056fea2646970667358221220efd4ccea494650d8edb0bd95949bee62831f46f5a5fbb2e0259ffb0cbcbfdbce64736f6c634300080b0033",
  "immutableReferences": {},
  "source": "// SPDX-License-Identifier: MIT\npragma solidity ^0.8.0;\n\nimport \"openzeppelin-solidity/contracts/token/ERC20/ERC20.sol\";\nimport \"openzeppelin-solidity/contracts/token/ERC721/IERC721.sol\";\n\ncontract TradingFloor is ERC20 {\n\n    uint constant ONE = 10**18;\n    IERC721 public NFT;\n    uint[] public NFTs;\n\n    constructor(\n        string memory _name, \n        string memory _symbol,\n        address _nft\n    ) \n    ERC20(_name, _symbol) \n    {\n        NFT = IERC721(_nft);\n    }\n\n    function deposit(uint256 _tokenId) external {\n        NFTs.push(_tokenId);\n        address sender = _msgSender();\n        NFT.safeTransferFrom(sender, address(this), _tokenId);\n        _mint(sender, ONE);\n    }\n\n    function withdraw() external {\n        uint256 tokenId = pop();\n        address sender = _msgSender();\n        NFT.safeTransferFrom(address(this), sender, tokenId);\n        _burn(sender, ONE);\n    }\n\n    function pop() internal returns (uint256) {\n        uint256 tokenIndex = block.timestamp % NFTs.length;\n        uint256 tokenId = NFTs[tokenIndex];\n        NFTs[tokenIndex] = NFTs[NFTs.length-1];\n        NFTs.pop();\n        return tokenId;\n    }\n\n}\n",
  "sourcePath": "/home/ubuntu/tradingFloor/contracts/TradingFloor.sol",
  "compiler": {
    "name": "solc",
    "version": "0.8.11+commit.d7f03943.Emscripten.clang"
  },
  "schemaVersion": "3.4.4",
  "updatedAt": "2022-02-17T01:13:05.071Z",
  "devdoc": {
    "kind": "dev",
    "methods": {
      "allowance(address,address)": {
        "details": "See {IERC20-allowance}."
      },
      "approve(address,uint256)": {
        "details": "See {IERC20-approve}. NOTE: If `amount` is the maximum `uint256`, the allowance is not updated on `transferFrom`. This is semantically equivalent to an infinite approval. Requirements: - `spender` cannot be the zero address."
      },
      "balanceOf(address)": {
        "details": "See {IERC20-balanceOf}."
      },
      "decimals()": {
        "details": "Returns the number of decimals used to get its user representation. For example, if `decimals` equals `2`, a balance of `505` tokens should be displayed to a user as `5.05` (`505 / 10 ** 2`). Tokens usually opt for a value of 18, imitating the relationship between Ether and Wei. This is the value {ERC20} uses, unless this function is overridden; NOTE: This information is only used for _display_ purposes: it in no way affects any of the arithmetic of the contract, including {IERC20-balanceOf} and {IERC20-transfer}."
      },
      "decreaseAllowance(address,uint256)": {
        "details": "Atomically decreases the allowance granted to `spender` by the caller. This is an alternative to {approve} that can be used as a mitigation for problems described in {IERC20-approve}. Emits an {Approval} event indicating the updated allowance. Requirements: - `spender` cannot be the zero address. - `spender` must have allowance for the caller of at least `subtractedValue`."
      },
      "increaseAllowance(address,uint256)": {
        "details": "Atomically increases the allowance granted to `spender` by the caller. This is an alternative to {approve} that can be used as a mitigation for problems described in {IERC20-approve}. Emits an {Approval} event indicating the updated allowance. Requirements: - `spender` cannot be the zero address."
      },
      "name()": {
        "details": "Returns the name of the token."
      },
      "symbol()": {
        "details": "Returns the symbol of the token, usually a shorter version of the name."
      },
      "totalSupply()": {
        "details": "See {IERC20-totalSupply}."
      },
      "transfer(address,uint256)": {
        "details": "See {IERC20-transfer}. Requirements: - `to` cannot be the zero address. - the caller must have a balance of at least `amount`."
      },
      "transferFrom(address,address,uint256)": {
        "details": "See {IERC20-transferFrom}. Emits an {Approval} event indicating the updated allowance. This is not required by the EIP. See the note at the beginning of {ERC20}. NOTE: Does not update the allowance if the current allowance is the maximum `uint256`. Requirements: - `from` and `to` cannot be the zero address. - `from` must have a balance of at least `amount`. - the caller must have allowance for ``from``'s tokens of at least `amount`."
      }
    },
    "version": 1
  },
  "userdoc": {
    "kind": "user",
    "methods": {},
    "version": 1
  }
}